:020000041000EA
:1000000000B5324B212058609868022188439860DF
:10001000D860186158612E4B002199600221596106
:100020000121F02299502B49196001219960352056
:1000300000F044F80222904214D00621196600F024
:1000400034F8196E01211966002018661A6600F04E
:100050002CF8196E196E196E052000F02FF8012189
:100060000842F9D1002199601B49196000215960AB
:100070001A491B48016001219960EB211966A021F2
:10008000196600F012F800219960164914480160C1
:100090000121996001BC002800D000471248134993
:1000A000086003C880F30888084703B5996A0420EC
:1000B0000142FBD001200142F8D103BD02B5186610
:1000C0001866FFF7F2FF186E186E02BD00000240BE
:1000D000000000180000070000035F00212200005C
:1000E000F4000018222000A00001001008ED00E03C
:1000F00000000000000000000000000074B24E7A12
:1001000000200420F7010010CB010010CD010010E9
:10011000C9010010C9010010C9010010C901001077
:10012000C9010010C9010010C9010010CF01001061
:10013000C9010010C9010010D1010010D301001045
:10014000C1010010C1010010C1010010C101001067
:10015000C1010010C1010010C1010010C101001057
:10016000C1010010C1010010C1010010C101001047
:10017000C1010010C1010010C1010010C101001037
:10018000C1010010C1010010C1010010C101001027
:10019000C1010010C1010010C1010010C101001017
:1001A000C1010010C1010010C1010010C101001007
:1001B000C1010010C1010010C1010010C1010010F7
:1001C000EFF30580103800BE00BE00BE00BE00BECA
:1001D00000BE00BEF2EB8871704D0010904D001013
:1001E0003802001090A31AE71E481F49086006C88D
:1001F00081F3088810471D480068002801D019487D
:10020000F3E70DA40ECC002902D000F012F8F9E7B4
:100210001749184A002000E001C19142FCD116495B
:100220008847164988471649884700BEFDE701C937
:1002300001C29A42FBD37047904D0010C0000020CD
:10024000B0100020805D0010000004200000042099
:10025000805D001000100420001004200000000049
:10026000704700000000000008ED00E0000000D032
:10027000B010002038210020191E00109903001032
:10028000111E0010F8B5C0460448054B10B5834256
:1002900003D0044B002B00D0984710BDB0100020B5
:1002A000B01000200000000006480749091A8B1012
:1002B000C90FC91810B5491003D0044B002B00D04A
:1002C000984710BDB0100020B010002000000000C2
:1002D00010B5074C2378002B09D1FFF7D5FF054B4C
:1002E000002B02D0044800E000BF0123237010BDA2
:1002F000F81500200000000040490010054B10B523
:10030000002B03D00449054800E000BFFFF7CCFFF5
:1003100010BDC04600000000FC1500204049001040
:10032000F0B5CE4647461B4A80B59369DB0621D41B
:10033000012398460133D0209C461E331021042609
:1003400008259946000693691942FCD1474614686E
:10035000E3B23C421CD1866164461C4216D18561E1
:100360001E4211D181611D4208D14B4683619369C0
:100370001942E8D0C0BCB946B046F0BD4B46436117
:1003800093691942DFD0F5E74161ECE74561E7E7A2
:100390004661E1E700400340F0B5C64600B501F014
:1003A0003BFED024022000F0C5F80423240663623B
:1003B000032000F0BFF808230420636200F0BAF8BD
:1003C00010230520636200F0B5F8202396216362B4
:1003D0002F4C8901200001F025F80221002000F0B7
:1003E00067F80221012000F063F8C022236B12029B
:1003F0001340284A00211360200001F0A3F81420C4
:10040000254900F0BBF90121142000F07FF95023A9
:10041000A363626B183B1340204A0426136004F068
:1004200061F91F211A2000F043F8002200211A2050
:1004300000F058F800211A2000F068F8E022184B6C
:10044000D2011B6820251340164A174F1360174B23
:1004500098468021124A3E60490013680B42FCD046
:100460004346526800215B5E92B2120A934208D062
:10047000A3691D42FCD1FA202260400000F0DAFEA0
:10048000E7E7A3691D42FCD10D232360F0E7C046D6
:10049000004003403050034021030010345003401B
:1004A00000C0044000D0044000E0044018210020B7
:1004B000094A83009A1810B51468402254408032CB
:1004C0002240064CC000A44663441A60044B9C467C
:1004D0006044416010BDC04604C0014004D00140EA
:1004E00000400140074B8000C3181B68C900920000
:1004F0000A435A400C231340034A94466044036065
:100500007047C04604C0014004D00140800000296B
:1005100005D0064B9C464023604403607047044B63
:100520009C46402360440360F8E7C04604E0014075
:1005300004F001400123D0228340120693629361AC
:10054000094A83009A1811684022514080320A40BB
:100550000649C0008C4663441A60054B9C4605233F
:10056000604443607047C04604C0014004D001406D
:10057000004001408023DB051868000F7047C0462B
:100580000FB400B5084883B001F096FD049B002B22
:1005900007D005A91800019101F020FC034801F0E3
:1005A0008BFD012001F032FC404900105049001041
:1005B00070B5EFF3108C72B60D4D2B68002BFCD08C
:1005C000BFF35F8F0724CB08C618C05C01230C4023
:1005D000A3401C000440034207D118433070BFF30E
:1005E0005F8F2C608CF3108870BD1000FFF7C8FF80
:1005F0002C0100D0F8B54746CE46884680B5EFF3CB
:10060000108C72B6214D2C68002CFCD0BFF35F8F8C
:100610009A422CD8D4080727055D061901241740F3
:10062000BC402C421FD007210127894609E0D4088D
:10063000055D06194C4639001440A1400C002942C2
:1006400011D001329342F2D201204042BFF35F8FBA
:1006500000220E4B1A608CF3108800280FDBC0BC00
:10066000B946B046F8BD254310003570EEE7BFF33C
:100670005F8F00232B608CF310880120404243469B
:10068000002BECD00898FFF77BFFC0462C0100D070
:10069000044A1078431CDBB2172B00D910231370C7
:1006A0007047C046E80F002010B5064B064C82B0DC
:1006B0000100009318221F232000FFF79BFF02B0C8
:1006C00010BDC04654490010781B00200021044B87
:1006D000044ABFF35F8F02C39342FAD17047C0460A
:1006E000000100D0800100D0054B064A1360064A85
:1006F000136053609360D3601361536193617047DB
:100700008080808000E400E004E400E01F231840C3
:100710001E3B8340002905D0C021044A49005350A4
:1007200013607047802201498B50FAE700E100E036
:1007300001228240034B1B6813405A1E9341D8B2DA
:100740007047C04600E100E001238340014A136086
:100750007047C04600E200E0064B10309B68800006
:10076000C358054A00209B1A2F229A424041C0B22A
:100770007047C04600ED00E0EC0F002070B50D00A2
:10078000EFF3108672B60F4A1368002BFCD0BFF34C
:100790005F8F0D4B10309B6884001B590B4A9342AE
:1007A00003D09D4201D001F0F3F8074B9B681D5127
:1007B000BFF35F8FBFF35F8F0022024B1A6086F397
:1007C000108870BD240100D000ED00E0C1010010D0
:1007D000F0B557464E46DE464546E0B585B00600C4
:1007E00000911700EFF3108B72B66A4A1368002B62
:1007F000FCD0BFF35F8F0025674B5D579A46002DF5
:1008000000DAA9E06B00654C01935B199B009846E8
:10081000A146C1444B4652469B7910361370604B3B
:10082000B6009B6899590B1B2F2B33D95D4B99420E
:1008300000D0ACE0019B42469C465B4B6544AD005A
:1008400063535A4B0232A218043B9B1A1B05584AA9
:100850005B0D651913436B80564B0121AB80FF2361
:10086000AB71009BEF71AB604B460B4319004C4BD7
:100870009B689951BFF35F8FBFF35F8F0022454B99
:100880001A608BF3108805B0F0BCBB46B246A9468F
:10089000A046F0BD01200A008243D3798C46BB42BA
:1008A00031D84546130044491B1B5B415943090D90
:1008B0003D4B63533D4B02356519043B5B1B1B05E8
:1008C0003B4D5B0D2B43AA464D466B800425AC4641
:1008D0005546E044131F44441B1B1B055B0D1D4381
:1008E0004B46997100999D8099604946DF71334B61
:1008F00001431360BBE75800C01880002018C1797D
:10090000B9422FD902000623D356002BF3DA029303
:100910002B4B61460393131D9A4604235B429C466E
:10092000E14450464B461B1A1B055B0D9C46204B71
:10093000957198466346404603439380019B5A193C
:100940009200039BA418A380029B1C4AA371009BE6
:100950002260E771A3608AE701F01AF80025534688
:100960005D574FE7908802934005131D9A46031583
:1009700061469C464046D444634604302018181A09
:10098000E0230005400D1B0218430390C5E700F06B
:10099000FFFF4FE7240100D031210020EC0F0020A1
:1009A00000ED00E0C101001000A1FFFF1C100020BD
:1009B00000E0FFFF01BDFFFFAAAA00000148804739
:1009C00001BD000070B501240443EFF30581EFF38E
:1009D000108C72B6214A1368002BFCD0BFF35F8FD6
:1009E0001F4B05001F4AED1A6D416A43120D1E4D43
:1009F0008900AE6852B27658A6421CD006215956DC
:100A000091421CD012215956914222D01E21595692
:100A1000914220D02A2159560324914210D0134BE1
:100A200019781A708171BFF35F8F00220B4B1A6027
:100A30008CF3108870BDAB680D4C5C50EFE7002460
:100A40006100091989005B18FF2199710949998092
:100A5000E5E70124F4E70224F2E7C046240100D0D0
:100A6000EC0F0020AAAA000000ED00E031210020D8
:100A7000C101001001BDFFFF10B5084B084C82B04A
:100A800001000093002205232000FFF7B3FD00289A
:100A900001DB1F23181A02B010BDC04670490010B8
:100AA00035210020024B9C4661448900016070475B
:100AB0004000003470B5114C114DAC420FD2FF26EE
:100AC0002368002B0CD0FFF7E3FD01002000FFF7A7
:100AD000E9FFA680BFF35F8F0834AC42F0D370BD4E
:100AE000FFF7D6FD01002000FFF7DCFF2671BFF302
:100AF0005F8F0834AC42E3D3F1E7C046A810002072
:100B0000B010002010B50400FFF7C2FD0100200066
:100B1000FFF7C8FFFF232371BFF35F8F10BDC046EF
:100B200010B504000120FFF7BFFD034BC3189B0065
:100B30002360BFF35F8F10BD40000034034B9C4621
:100B4000614489000160BFF35F8F7047400000344B
:100B50000A4B1968EFF3108072B60A68002AFCD0BD
:100B6000BFF35F8F1B68BFF35F8F00221A6080F3B3
:100B7000108840BF002000217047C0460C21002093
:100B8000F0B5DE4657464E464546E0B583B0EFF336
:100B9000058203231340B54A9900525800919046AC
:100BA00001229A409346B24B1A60B24B01935B46C6
:100BB000B1484363434608229B5E9946002B3ADACC
:100BC00043469B881BB2002B00DB9DE043469B798C
:100BD000002B00D0E1E0434608241C5F002C20DB02
:100BE00043465A6963001B19DB00D3189D68DC6813
:100BF0006B1C00D103E1A048009984466144826ADD
:100C00000B69AE1A9B1A9E4213D35A46036A1A42C4
:100C10000FD0994800F0B0FB8C4202DCC7D185426E
:100C2000C5D940BF03B0F0BCBB46B246A946A046FA
:100C3000F0BD0D61EDE7424652695B0092464B44C0
:100C4000DB009A4453469E68DF6800F095FB8F42B4
:100C5000B6DC00D1F8E0002F00DAD9E05246534666
:100C600054691B69019A934200D1CCE04146524637
:100C70000820085E528800042100104398470400B1
:100C80000D0023002B4300D1C2E0002D00DBDFE08C
:100C900030003900001BA94153469860D9600022FA
:100CA0009A5E002A00DA8BE743465D6953009C1880
:100CB000E4002C19A768E4688C4200DD80E702D1CB
:100CC000874200D97CE74646328108360DE08C42E7
:100CD00000D1C6E01E000023F25E002A0ADB5300AA
:100CE0009C18E4002C19A768E4689B18DB00EB183B
:100CF0008C42ECDD53461A804B46338043469B883A
:100D00001BB2002B00DA61E743461A69EFF310814A
:100D100072B61368002BFCD0BFF35F8F43469E88EA
:100D2000012342465B42938036B21369BFF35F8F63
:100D300000221A6081F31088002E00DA46E743464D
:100D40005D69083342469C467700BF19FF00EF19E2
:100D5000BB68604698460823D15E9246FC6800292D
:100D600007DA0EE0A24246D018000023C15E002937
:100D700006DB4B005B18DB00EB18DA68A242F1DD02
:100D8000524606800023FE5E3980002EDCDA904653
:100D900043469B79002B00D11DE700234246937107
:100DA000434646460821595E08364B1C00D138E7B9
:100DB00047468946556902E006004B1C18D04B0097
:100DC0005B18DB00E8180A008C46E95E43881BB21A
:100DD000002BF1DA01235B42DC178360C4604A45D3
:100DE00003D031803B8903803A81E1464B1CE6D138
:100DF000B8464C46F2E69A684245B5D9C0E7631C4E
:100E000000D0F8E605E7200023699847002825D19F
:100E1000534642461B8813811269EFF3108372B662
:100E200011680029FCD0BFF35F8F424651465288BB
:100E30000A804246494651801269BFF35F8F002104
:100E4000116083F31088BBE6864200D803E7B7E65B
:100E5000094800F091FA001969411DE765682468A6
:100E60000FE7874200D835E744E7C046F01F00206F
:100E70003C700540810B00100040054070B52E4CC1
:100E80002569002D04D00A212C48FFF70BFE70BD08
:100E90002B4E0321300000F065FAE660FFF7F8FB07
:100EA000284B03229C46D02322701B061B6801217D
:100EB0006370254B6044A3600F23800020610220F3
:100EC000638063694942A1801980023119864731E4
:100ED0001D83585218315A5275325C399952183262
:100EE0000131995218320131995218320131995217
:100EF000083518329D520231183299521832013198
:100F000099521832013199521832013199521832DE
:100F1000013199521832013199520C4B0C49DC6065
:100F200001303562FFF72AFC01210320FFF7EEFBB9
:100F3000084B1D60A7E7C046341000200C2100209C
:100F40000040054040000034FFFF1000F01F00206B
:100F5000810B0010386005400048704734100020B5
:100F6000F8B51F0008AB1B7804001600002B08D151
:100F700000F00AFA32003B00121A8B41002B00DA13
:100F800053E02269EFF3108072B61368002BFCD097
:100F9000BFF35F8F0223E15E63694A005218D200FB
:100FA0009B18002937DB1A8862802269BFF35F8FA4
:100FB0000025156080F31088069A9E60DF601A6134
:100FC000079A5A615A8801325204520C101C002AA6
:100FD0001FD082B25880080410432669EFF31087AF
:100FE00072B63268002AFCD0BFF35F8FA2881A80E5
:100FF000A1802369BFF35F8F00221A6087F31088F6
:101000000B4923788C4601329A40E36863441A60A6
:10101000F8BD0120DDE72369BFF35F8F00221A606E
:1010200080F3108801204042F2E70020F0E7C0463C
:101030003C20000070B501000469EFF3108C72B61B
:1010400020680028FCD0BFF35F8F02200D5E4C6942
:1010500068004019C0002418002D37DB2088488024
:101060000869BFF35F8F002606608CF31088E36089
:1010700063880498013320615B0405985B0CA260CF
:1010800060611A1C002B1FD093B2280462801843A1
:101090000A69EFF3108C72B61368002BFCD0BFF313
:1010A0005F8F8B8823808D800B69BFF35F8F002259
:1010B0001A608CF310880B7801329A40CB6808498B
:1010C0008C4663441A6070BD0122DDE70B69BFF3F3
:1010D0005F8F00221A608CF3108801204042F2E7F3
:1010E0003C20000010B543890A1493421ADD5300D6
:1010F0009B184269DB00D3180469EFF3108C72B6B9
:101100002268002AFCD0BFF35F8F5A88090494B28A
:10111000090C8A4208D00369BFF35F8F00221A606E
:101120008CF31088002010BD8022120214435C80D2
:10113000012302698371BFF35F8F002111608CF37B
:101140001088044902788C469340C26801206244AA
:101150001360E8E73C20000040787047F0B50400D9
:101160000D0006267642F717C64636196F4100B5C0
:1011700082B08F4214D811D000F006F932003B0043
:10118000121A8B41002B17DC002B47D020002900BE
:1011900000F038F902B080BCB846F0BD8642EBD909
:1011A0000022002316001F0000F0EEF832003B0082
:1011B000121A8B41002BE7DD00F0E6F832003B000D
:1011C000121A8B41002B0ADB00230193154B3200CE
:1011D000009315483B00FFF72DFF0028D6DB0023C6
:1011E0009C46B046114A124E736A9F4204D8B16AB7
:1011F0008845CBD99F42C9D11168EFF3108072B6F0
:101200000B68002BFCD0BFF35F8F1368BFF35F8FB9
:101210006146196080F3108820BFE5E7002AB5D049
:10122000CAE7C046510B0010341000200C210020EA
:101230000040054070B5060000F0A6F8FA22040050
:101240000D00002330000021920000F05DFD80239E
:10125000001969411B06994202D30120024940420C
:10126000FFF77CFF70BDC046FFFFFF7FF0B5D6469D
:101270004F464646C0B504000D0082B0EFF3058727
:101280008946002F0ED0344900204B6AAB4203D36D
:101290008A6A0130A24226D302B0E0BCBA46B14607
:1012A000A846F0BD2D4B9846DB689A46434650460B
:1012B0001E7800F061F80B00514602000436B600BB
:1012C000715820008E1A2900801A99418F4211DC32
:1012D0000ED020BF204A0020536A4B45DCD3926ACF
:1012E0000130A242D8D25B1B5A1E9341D8B2D3E739
:1012F0008642EED900F048F822002B00121A8B41EA
:10130000002B1ADB00230193154B2200009340466B
:101310002B00FFF78FFE011E0FDD0F4B5A6A4A4567
:1013200017D39B6AA34212D34046FFF7DBFE0A4A5B
:101330000020536A4B45AFD3D1E7074A0020536AD8
:101340004B45A9D3926A0120A242A5D2CBE74A45D8
:10135000EAD120BFE8E7C046004005403410002035
:10136000510B001010B5024A0248FFF721F910BDD9
:101370008C4900107C1B00200300416A0A00986A17
:10138000596A8A42FAD17047034B596A0A00986A2F
:10139000596A9142FAD170470040054070B5040087
:1013A0000D00174A536A1900966A536A8B42FAD1A4
:1013B0003000190024184D41AB4216D813D0104A02
:1013C0002B00526A954203D90D494A6A9A42FCD3CE
:1013D0009A4207D10A4A02E0516A994202D1916ABF
:1013E000A142F9D370BDA642E9D9054B5B6A1C0046
:1013F0005A1CEFD0012301246442E5175B42E3E766
:1014000000400540064A536A9942FCD807D1044B74
:1014100002E05A6A914202D19A6A8242F9D3704735
:1014200000400540F8B5040006200D0000F0A6F9C4
:10143000002844D0374B3849E3185A1E9341802284
:10144000120494465B429B0D344A9B05634413602F
:10145000334A136018000A689043FBD12D4B314A80
:10146000E31859424B4180215B0049000620995204
:1014700000F084F92900C00000F0B4FB0130C3097A
:101480001ED1402701226262A362266BF30722D499
:10149000E36A254B0620E51800232B60266300F045
:1014A0006DF93900800000F09DFB7023E26A5A401C
:1014B0000E3313402B601D4B23630323A364F8BD3D
:1014C0001B4A93421ED900231A4A1B4F6262A36231
:1014D000266BF307DCD5194B144AE3181A60656ACA
:1014E000A36A0620AD01ED1800F048F9144900F098
:1014F00079FBAD020100280000F074FB0021FFF72A
:101500004DFFC5E74006800E9F011A003F180300FB
:10151000B9E7C0460080FCBF08C0004000E00040C2
:1015200000F00040182100202C10000001030000F2
:10153000FEFF0000FFFF0000C0FF3F003030000052
:101540004E0E0000F8B5066B04000D01F30708D439
:10155000E36A5D4010231D400D4BE3181D602663B8
:10156000F8BD0C4B0C4AC3181A60476A836ABF0166
:101570000620FF1800F002F9084900F033FBBF0213
:101580000100380000F02EFB0021FFF707FFDFE726
:101590002C10000030300000010300004E0E00004F
:1015A000F8B5DE464E4657464546E0B58B46050043
:1015B0000A991800160000F015FB0A9B6C001F0228
:1015C000324B64199C46A4006444636881469F4280
:1015D00000D967602B1FDBB29846012B30D9C0239E
:1015E00080229B01E31812011A60294BAD00595962
:1015F0009A4600291BD17301E026226853401E4001
:10160000802342465B01E3181E60012A30D9802303
:1016100080229B01E31812011A6053464A46676014
:101620005A51F0BCBB46B246A946A046F8BD58691F
:1016300000F0D8FA013043001B18033BFDD2DAE773
:101640005B46012BCBD1C02303229B01E3181A6018
:10165000023AA3681A42FCD07301E0262268AD006A
:1016600053401E4080230A4A5B019246E3181E60E5
:101670005A462168514003220A401A6001225B4603
:101680009A40A3681A42FCD0C1E7C04600800040DF
:10169000801B0020F0B546464F46D646C0B51F0019
:1016A000344B44009C462418A40064446368884674
:1016B0001600FF2B02D880235B006360031FDBB2A0
:1016C0009A46012B30D9C02380229B01E3181201D6
:1016D0001A60294B85005959994600291BD173017D
:1016E000E026226853401E40802352465B01E318E7
:1016F0001E60012A30D9802380229B01E318120149
:101700001A6080235B0063604B465F51E0BCBA46C1
:10171000B146A846F0BD586900F064FA01304300B4
:101720001B18033BFDD2DAE74346012BCBD1C02384
:1017300003229B01E3181A60023AA3681A42FCD004
:101740007301E0262268850053401E4080230A4A28
:101750005B019146E3181E60424621685140032216
:101760000A401A60012342469340A2681342FCD00B
:10177000C1E7C04600800040801B0020014B800074
:10178000C0587047801B0020F8B5040021481E0097
:1017900017000D0000F026FA0100380000F022FAD0
:1017A000069B36041B031E432368002B20DB1A4BC9
:1017B0001A49E3185A1E93418022920194465B42D3
:1017C0001B0B174A1B0363441360164A13601F0068
:1017D0000A689743FBD1144B2560E2182123A060CF
:1017E00013602368002BFCDA0823E6601360F8BD61
:1017F0003F2322681340AB42D9D1A3681B051B0DC0
:101800008342D4D1EE22E368D2021340B342CED158
:10181000EDE7C046001BB7000040FDBF08C0004018
:1018200000E0004000F000400430000010B58024CB
:101830001C4BE4051C6000281AD001231A4C1843E5
:101840001A4BDC611A4C44401C6259629862802138
:10185000144BC9051960174817490860E021C904ED
:101860001960002A07D18022144B12061A6010BD9D
:101870000E4BD861EBE753019B1A9B009A1880230B
:1018800012015B049A4209D213000D490B60074B09
:101890005A608022094BD2051A60E8E7094B1A000A
:1018A000F3E7C04600B00540D3C007B00080054054
:1018B0002D3FF84FFCFF01000820014000A005402B
:1018C000E01F0020FFFFFF008023024A9B000B4324
:1018D000D362704700800540142310B501001888BA
:1018E00004331B88984710BD162310B501001888D3
:1018F00002331B88984710BDF8B54746CE4680B5E1
:101900000F1E19D014239946043304000025012624
:1019100098464B461888434621681B88984701C45F
:10192000431E9841013540420640AF42F1D130009C
:10193000C0BCB946B046F8BD0126F8E7142370B51F
:101940000400188804331B880D00054998470300DC
:101950000020002C01DB0130A04029009847C04640
:1019600055420000AA23064A1B0113608D235B0029
:10197000D3600449044B19605368002BFCDA7047AC
:101980000040024000B0FA00006002407047C046CC
:1019900010B50148FEF7F4FDB049001070B5074DD1
:1019A000074EB54209D20024013E761BB60808CD89
:1019B000984723000134B342F9D170BDF8480010B4
:1019C00034490010054B064A06491A60064A074B7F
:1019D0001A6010000B689843FBD1704700E000408C
:1019E000BFCDFBFE08C00040FE7F3C0000F0004081
:1019F000044BDB6C002B03D18022034BD2021A6014
:101A00007047C046000011504C201150044A054B4D
:101A10001A60054A1368DB018033FBD17047C0466A
:101A2000FFFFFF0100F0004008C000404022034BD0
:101A30009A675A671A67DA667047C04600F0014035
:101A400010B5FEF743FE10BDF8B52749274C284DC9
:101A5000641AA6103200302E00D9302228009200DD
:101A600000F0AEF9BC2C3BD830202F232C19640792
:101A7000204A801BE40F9B1B052B16D93700002C36
:101A800002D0B300771CEA50001B33199B004108B9
:101A9000EB18C900C9181A605A6008339942FAD184
:101AA000012303421CD09843C619B300EA50731CAB
:101AB0002F2E15D09B00EA50B31C2E2E10D09B0069
:101AC000EA50F31C2D2E0BD09B00EA50331D2C2E18
:101AD00006D09B00EA50731D2B2E01D09B00EA50CC
:101AE000054B9D60F8BDC04600010010C00100100C
:101AF00000000020C101001000ED00E0002310B53F
:101B0000294C82B0A367FFF72DFF0122274B1A60F3
:101B1000636C012BFCD10322254B1A60224A936B84
:101B2000012BFCD1013300930121224A22480433C6
:101B3000FFF72AFE052301210093204A2048FFF7E2
:101B400023FE0022022104201E4BFFF7A3FD0022EA
:101B5000012105201C4BFFF79DFD002200210720DD
:101B60001A4BFFF797FD002200210820174BFFF7C3
:101B700091FD8023DB000093002200210920134BFC
:101B8000FFF70EFD0022104B00210620FFF782FD1B
:101B90000420FFF7F3FD0E4900F024F801000020B7
:101BA000FFF792FE02B010BD008000403CB0004044
:101BB00030B00040002F685900800240008C8647FA
:101BC00000C00240001BB70040597307006CDC02E4
:101BD00040420F0001480421014B184750100020DB
:101BE000F9180010114A936F9B0813D210665166C2
:101BF000002905D0FFE7FFE7FFE7516F106F70473F
:101C000004B5002801D00020C04302F035FE0021B9
:101C100004BDC046F0B5146E556E576F166FFFF7D2
:101C2000E5FF1466556657671667F0BD000000D0E3
:101C300010B50148FEF7A4FCBC490010132370B591
:101C40001D78012D19D014DD1D48FFF74DFE06004B
:101C50001C48FFF749FE1C4C80223100200000F098
:101C6000AFF8022D06D01948FFF736FE184B186062
:101C700070BD154C174BA364F5E7174B124C23604E
:101C80006360A360E36023616361A361E361236236
:101C90006362A362E36223636363A363E363236416
:101CA0006364A364E36423656365A365E3652366F6
:101CB0006366A366E36623676367A367E367D9E7A1
:101CC0005344000053460000F81400204C33000039
:101CD00008200020DD1C0010311C001007B56046F4
:101CE00001880A0A0230DF2AFAD1C9B2820804D375
:101CF000028840880004104300E00068014A505008
:101D0000039007BDF814002051434343C9188C4683
:101D1000110C83B24B4310B4040C614392B280B2F5
:101D2000504362431C041B0C001910BC594113049E
:101D3000120CC018514161447047000010B50148B1
:101D4000FEF71EFC0C4A0010132310B510481C7837
:101D5000FFF7CAFD0100012C0AD003DD80220D48E7
:101D600000F02EF80C48FFF7B7FD0C4B186010BDC3
:101D7000084C5422200000F023F822000849803249
:101D80002368002B00D1216004349442F8D1E9E7A4
:101D9000534600000C2000204C3300000820002097
:101DA0003D1D001001480421014B18476010002020
:101DB000F9180010014B1B68184700006010002044
:101DC000014B5B68184700006010002010B5002828
:101DD00000D110BD00F024F9FBE7C04610B5094A58
:101DE0000300146884B0002C08D00122009106483A
:101DF000524203A9A047012004B010BD00F05CF9D5
:101E00000020F9E7DC1F0020CD1D001000BEFDE71B
:101E100010B5FFF7FBFFC04670B5FFF7BFFD074DDC
:101E2000074EB54209D20024013E761BB60808CD04
:101E3000984723000134B342F9D170BD34490010F2
:101E400040490010030010B5080011001B689847B6
:101E500010BDC046F0B5C64600B5437D07000D0075
:101E60001600002B38D0002A2EDD00216A1E904675
:101E70006A5C037D4C1C00200A2A0CD0A64216D0B6
:101E800043461B5D21000D3B5A4253416A5CDBB265
:101E90004C1C0A2AF2D1002BF0D1884217DB022118
:101EA00010483B689847A64207D02000E8E78642E2
:101EB00003DD311A3B6828189847AD19013D2B788E
:101EC0000D3B5A4253413B7580BCB846F0BD091AE0
:101ED0003B6828189847E2E70368110028009847F4
:101EE000F2E7C0460C4B0010F0B5DE4657464E46B2
:101EF0004546E0B585B017001C0006000D00FFF751
:101F000043FA0023314A12184B41802109068B42C3
:101F100002D301222E4B52422E4908008A4602F07B
:101F2000C3FC01906B1C03D1300002F0FFFB0500E5
:101F3000002C26D0284B9846284B1C68002C15D026
:101F4000002F21D1264F02E02469002C0ED02368F7
:101F5000002BF9D03B68002B01D09C42F4D120002B
:101F60002A003100C0472469002CF0D1019B002BCE
:101F700028D1280005B0F0BCBB46B246A946A04611
:101F8000F0BD184B9846D7E7154B994602ABDF1DBD
:101F90000A239B4602E02469002CE7D02368002B2B
:101FA000F9D04B461B68002B01D0A342F3D12A0085
:101FB00031002000C0475B460122390020003B7001
:101FC000C047E8E7504602F04FFCD2E740420F001E
:101FD000FFFFFF7FA8100020551E0010D01B00201F
:101FE000D81B0020451E00100A4A1368002B05D19B
:101FF0000CE01A001B691032002B07D09842F8D170
:10200000002902D103691360016170470029FCD0E7
:102010001060FAE7D01B002010B500F08DFA10BD5B
:10202000F0B5CE46474680B583B06B460600DD1D51
:102030002870FFF7A9F900231A4A12184B41802192
:1020400009068B4202D30122174B5242174908005E
:10205000884602F029FC164B81461C68002C14D0DF
:10206000144F02E02469002C0FD02368002BF9D014
:102070003B68002B01D09C42F4D1200001222900B2
:10208000FFF7E8FE2469002CEFD14B46002B05D169
:10209000300003B0C0BCB946B046F0BD404602F0C7
:1020A000E3FBF5E740420F00FFFFFF7FA810002091
:1020B000D01B0020D81B002070B5040002F036FBB6
:1020C00001230100050001222000FFF70DFF084B4E
:1020D0001C68002C06D06368002B05D09847246943
:1020E000002CF8D1280070BD2469002CF3D1F9E749
:1020F000D01B00207047C0460022014B1A70704769
:10210000322100204B790020FF2B0BD18B79002B43
:1021100008D1CB79012B05D1082A03D9024B8A7843
:1021200009301A707047C0463221002001207047E4
:1021300010B5012901D0012010BD13495379107940
:1021400009781B02034300209942F5D15378012BF3
:1021500008D0022BF0D1002064220021FFF766FB9B
:102160000120E9E7D37891781B021943DB0507D5F5
:102170004A0A100001231A407E331940FFF7DEFBA4
:1021800001204A0A4042F5E732210020004870470A
:10219000D84B001070B5050014000120012909D1A9
:1021A00053780020012B05D1637912791B02134368
:1021B000072B00D070BD21002800024A9F3301F098
:1021C00049FAF7E7304B00100123037000487047CD
:1021D000104B00104B780A781B0213438A7810B515
:1021E00012041A43CB781B0613439622D200934263
:1021F00000D010BD0022012011004042FFF79EFBDD
:10220000024B1860024B19607047C046701B0020DB
:10221000741B002010B5024B1878FEF795FA10BD1C
:1022200033210020154B70B51A68002A22D0EFF335
:10223000108172B610680028FCD0BFF35F8F0020B9
:102240000F4A596010701B68BFF35F8F186081F3ED
:102250001088002400250B4E3078FEF769FA00281C
:1022600004D1002400252900200070BD3078FEF73D
:102270006BFAF8E7FA240025A400ECE7E81F002039
:10228000342100203321002070B5040000200E000E
:1022900001F0F8FA002836D0002001F00DFB0028EC
:1022A00031D0FFF771F80023184A12184B418021F2
:1022B00009068B4216D2164D280002F0F5FA0028C6
:1022C00021D0002001F0DEFA00280FD101200021EA
:1022D000404200F0F3FC03246442280002F0C4FAF8
:1022E000200070BD01220B4B5242E4E7002001F0B8
:1022F000E3FA0028EAD021003200002001F0EAFAD7
:10230000041EEAD1E7E703246442E9E740420F00F4
:1023100010210020FFFFFF7F10B5FFF735F80023E5
:102320000E4A12184B41802109068B4202D301222A
:102330000B4B52420B4C200002F0B6FA00280CD096
:1023400001200021404200F0B9FC002001F012FB06
:102350000028F5D1200002F087FA10BD40420F009E
:10236000FFFFFF7F10210020F8B5DE46574680B5FD
:1023700005000C00FFF708F80023374A12184B41FC
:10238000802109068B4202D30122344B5242344948
:1023900008008A4602F088FA002803D1C0BCBB4678
:1023A000B246F8BD002001F06DFA00284AD00026A0
:1023B000002C43DD2B4B9B4614E0A919002001F0B3
:1023C00015FB070001200021404200F077FC0020AF
:1023D00001F0D0FAFEF7D8FF224BF61918605960C9
:1023E000B4422BDD002001F023FBA71B0200B84202
:1023F00000DD3A00002AE0D101200021404200F037
:102400005DFC002001F0B6FA002001F03BFA002844
:1024100014D0002001F00CFB0028E1D1FEF7B4FF3E
:102420005B460F001A685B68002184460E4812184C
:102430004B419F4202D8D3D19445D1D9504602F0A6
:1024400013FAABE700200021064B18605960504694
:1024500002F00AFAA2E7C04640420F00FFFFFF7FEA
:1024600010210020F014002020A1070030B52B4CD3
:1024700085B00021200002F007FA00281CD1284B6B
:102480001A68002A16D0EFF3108172B6106800287F
:10249000FCD0BFF35F8F01242248596002781B688B
:1024A000D2B20470BFF35F8F0020186081F31088F0
:1024B000002A17D005B030BD01200021404200F0B5
:1024C000FDFB002001F0F8F90500200002F0CCF936
:1024D000002DEFD0144B1B68002BEBD0134A106873
:1024E0009847E7E7FEF738FD0400FEF74DFFFA22B4
:1024F0000023920012184B41802109068B4202D31F
:1025000001220B4B52420121029100210191094904
:1025100020000091FEF724FDCCE7C04610210020EA
:10252000E81F002034210020701B0020741B0020B5
:10253000FFFFFF7F25220010D02310B51B0684B0BB
:102540001C68FEF709FDFEF707FEA04202D000203E
:1025500004B010BD294B1B7801F0A2FD2848036888
:10256000002B47D00120FEF787FAFF23254C264990
:1025700020701840FEF702F920780121FEF7C6F816
:102580000520FEF7E9F8002826D1082200211F487F
:10259000FFF710FCFEF7E0FC0400FEF7F5FEFA2260
:1025A0000023920012184B41802109068B4202D36E
:1025B0000122174B5242012102910021019115493C
:1025C00020000091FEF7CCFC0028C0DB124801215E
:1025D000FFF70AFD0120BBE70120FEF765F80B4B72
:1025E00001001800FEF7AAFA002205200B49FEF7A9
:1025F000EFF8EBE7FEF786FAB4E7C0468C4D001023
:1026000010210020332100206D240010E81F00203D
:10261000FFFFFF7F25220010701000201522001000
:1026200000487047744C001000487047204C001060
:1026300010B5040017480378002B20D0002C06D1D9
:10264000154B16484380063BFF3B038010BD052C0D
:1026500019D8134BA400E05812490123013804E0B3
:1026600001330A800231142B0FD0C25C002AF7D14B
:10267000C022DBB25B00920008481343E5E711215A
:1026800000F01AF8DAE70020E0E7CA2303489B00CD
:10269000DBE7C0461C21002009040000A81B002025
:1026A000084C0010AA1B002010B5024800F0D8F812
:1026B00010BDC0460020002030B54B1E012900D1BE
:1026C000A7E0664A11780D092C0030349F2900D903
:1026D000A2E00470012B00D1BEE00F21147821404C
:1026E0000C003034092900D998E04470022B00D145
:1026F000B2E054782509290030319F2C00D990E0B0
:102700008170032B00D1A7E00F2121400C00303451
:10271000092900D987E0C470042B00D19CE094788B
:102720002509290030319F2C00D97FE00171052B4C
:1027300000D191E00F2121400C003034092900D94B
:1027400076E04471062B00D186E0D4782509290073
:1027500030319F2C00D96EE08171072B00D17BE0D6
:102760000F2121400C003034092966D8C471082B90
:1027700000D171E014792509290030319F2C5FD8F0
:102780000172092B68D00F2121400C003034092937
:1027900058D844720A2B5FD054792509290030316A
:1027A0009F2C52D881720B2B56D00F2121400C0048
:1027B000303409294BD8C4720C2B4DD0947925099B
:1027C000290030319F2C00D9073101730D2B43D0E4
:1027D0000F2121400C003034092901D937310C0078
:1027E00044730E2B38D0D1790C09220030329F2946
:1027F00000D9073282730F2B2ED00F220A4011000E
:102800003731092A01D830321100C173102B23D07F
:1028100010300023037030BD07345AE737310C0005
:1028200063E707316CE737310C0074E707317DE768
:1028300037310C0085E707318EE737310C0095E71B
:1028400007319DE737310C00A3E70731AAE737319D
:102850000C00C4720C2BB1D1C018DAE700200020A4
:1028600010B588B004000D2200216846FFF7A2FAD7
:102870000D22002104A8FFF79DFA4B236A46684603
:10288000137004A90D2201F0E7FF15210822200092
:102890006944FFF795FA08B010BDC046F8B500F0DE
:1028A0003BF90C23184DFF22AB6705201749FDF7B4
:1028B0008FFF174C402200212000FFF77BFA4027B2
:1028C000002301262121134A66702783A26013602A
:1028D00063545F316184453963540F4A0F49636023
:1028E000E2602787A1620B606362E26201F0ECFFA5
:1028F00080239B052E64EB649023094AEA508022D2
:10290000084B5202DA64F8BD00001150F1040020B7
:10291000DC1B00208400105000011050800010507B
:1029200010D001000020115010B501210520FDF745
:10293000EDFE10BD10B500220021024800F00CF998
:1029400010BDC046FC1B0020044B1970002904D0A8
:1029500080219023024A8902D15070472E21002005
:10296000002011500B785B0602D14B78052B00D06C
:1029700070478A78014B1A60FAE7C0460000115090
:10298000F0B5C64600B5CC7888780A794B797F21B6
:10299000A40701401B02C50913434F00A20F1400F6
:1029A000324E7A195201B21890700120684050706E
:1029B00000205B055B0DD0701383D4768046CA007F
:1029C000012D33D02A488446880162448446B444A9
:1029D0006046826040461060002933D0254AC90015
:1029E00090466246414451603F223F339343022C5C
:1029F00000D15B0020487A1901685201B218D160F9
:102A00001E4ACB18036051405A40802388465B0120
:102A10009A4228D84346A4061C4380237F197F018D
:102A2000F61972681B062343136011E014488446AC
:102A3000880162448446B444604682624046106025
:102A4000002909D100236D0175196B600D4BEB60F6
:102A5000012080BCB846F0BD084AC90090466246D5
:102A600041445162C0E7FEF793FFD3E7DC1B00202F
:102A70008400105004001050E41F0020000010508B
:102A8000800010500001105010B501F01DFF10BD66
:102A900010B57F200C0020404000E409110000190F
:102AA0001A00034B4001C01800F056F8012010BD79
:102AB000DC1B00207F23180010B50840CA090B4218
:102AC00003D107497D3B9B1A8B664000801880220A
:102AD000044B40010021C018120101F005FF10BD98
:102AE00000201150DC1B00207F22130010B50B408A
:102AF0000A4200D110BDC9095B005B1804485B01A4
:102B0000C018002300220349C37001F0EDFEF1E775
:102B1000DC1B0020FFF7FFFF80220A4B520410B598
:102B20001A60094B09491A6010000B689843FBD1E1
:102B30008022002152010648FFF73CF90922054B8B
:102B40005A6710BD00E0004000F0004008C000409F
:102B50000000105000001150002310B5C382013353
:102B6000828283760161040001F06EFE002804D0A9
:102B700080219023074A8902D150200001F0ACFE49
:102B8000002802D00123237710BD200001F094FE1D
:102B9000FAE7C046002011507047C0467047C04653
:102BA00000207047002070477047C0467047C046FD
:102BB0007047C0467047C046024B5878431E984144
:102BC000C0B2704754190020024B18784007C00F5C
:102BD0007047C04654190020F8B54746CE4680B528
:102BE0002B4F06003B78FF2B04D00120C0BCB94618
:102BF000B046F8BD002154222648FFF7DBF800223A
:102C0000254C264B20001A70FDF77CFF244B1C60DE
:102C1000244C2000143CFDF783FF200001F01EFD32
:102C2000214B224D1C60224B002B27D02800FFF7A0
:102C3000CBFA204B2A7818601F49002489461D4989
:102C40000023884610E043461B6862019B18002B56
:102C500012D05B68002B0FD098472A780134E4B279
:102C6000511C2300A1420BDBA242ECD89B1A5B0152
:102C70004B445B68002BEFD10020B7E72A78DBE7F5
:102C800030003E70FFF70AFE3000FFF74DFEACE764
:102C9000A4100020541900200C1900202F2100201E
:102CA000A81900209C100020AC1900202D21002024
:102CB000C9210010A8170020304D0010F0B5DE46E5
:102CC00057464E464546E0B5C84B91B002931B7837
:102CD000FF2B00D13EE1C64BC64E9B465F46C64B1E
:102CE0000DAC0193C54B009335686A69EFF3108111
:102CF00072B61368002BFCD0BFF35F8FA961280068
:102D0000210001F0D9FA6A69AB69BFF35F8F002136
:102D1000116083F31088002800D11BE16378082B31
:102D2000E2D89B00FB589F466368002BDCD0A0686C
:102D30009847D9E77F222179AF4D0A405300EB181D
:102D40009846C809804440460123303005799D43A8
:102D50000571057903339D430571002A00D100E117
:102D60004346A74A1B7D1278934200D3EFE0A54A61
:102D70005B011568ED18002D00D1EBE0A3686279C6
:102D80002078AD69A847AFE79F4A1378002B00D1A0
:102D9000E0E01378013BDBB213701378002BA3D172
:102DA0000122954D01212B78042013432B703423ED
:102DB000EA5C8A43EA54EA5C8243EA540133EA5CFF
:102DC0008A43EA54EA5C8243EA54237800209B4613
:102DD00000F0A0FC602223791A40602A00D1EFE0C5
:102DE000402A00D1F5E0DB06DB0E012B00D113E118
:102DF000022B00D1C7E0002B00D0E1E0202A00D157
:102E00001CE2002A00D0DBE06379092B00D9D7E06F
:102E10007E4A9B00D3589F46774D2B78DB0700D422
:102E200062E7FFF7C7FE5FE7019BDB78DB0700D4B3
:102E30005AE76068FFF7B2FE56E76F4D2B78DB0765
:102E400000D451E728780007C00FFFF7B1FE4BE729
:102E500023786A4999468B46694B6A4998468A465F
:102E600039001A7847460023B04600254E46894669
:102E700010E053461B686A019B18002B00D176E0D6
:102E8000DB68300098473A780135EDB2511C2B00D1
:102E90008D4244DC9542ECD39B1A5B015B44EFE727
:102EA000237858499946564B8A4698463100BB4686
:102EB0004E461A7800250023474689460FE05346C0
:102EC0001B686A019B18002B55D0DB6830009847BF
:102ED0003A780135EDB2511C2B008D4207DC95424A
:102EE000EDD39B1A009A5B0194466344EDE7019D84
:102EF000542200212800FEF75DFF1022FF214448E4
:102F0000FEF758FF28002022FF2114304E465F466E
:102F1000FEF750FF00F0F4FBFFF748FEE4E6364D05
:102F2000542200212800FEF745FF1022FF21281D12
:102F3000FEF740FF28002022FF21143046464F466E
:102F4000FEF738FF00F0DCFB2379AB70CCE6501CB9
:102F5000984213DA11B0F0BCBB46B246A946A0466F
:102F6000F0BDA3686279207800F0E8FBBCE6464635
:102F70004F46214DE6E74E465F46CBE71F4D9B1A75
:102F80005B015D19FAE67023217A0B4218D1C8095A
:102F900082460F330B405B0098461948EB185344A8
:102FA0001B7D00789946834266D216485B01006813
:102FB00081469944002A00D15FE14B46002B68D13D
:102FC00020780021FFF776FD80212078FFF772FD41
:102FD0008AE6104800F09EFB012158460EAAFFF732
:102FE000D9F8002800D07FE6EAE7C046A410002008
:102FF000884C0010AC19002054190020304D0010EE
:103000002D210020A81700202F210020AC4C0010FB
:103010005819002095210010237A0F2BD0D8CF4AC1
:10302000EB181B791578AB423ED3691C9942C7DB7C
:103030005D1BCB4B6D01ED18686900F06BFB012146
:1030400058466B690EAA9847002800D04CE66022CB
:10305000150023791D401A42B2D163790A3B012B36
:10306000AED800F057FB63790A2B00D199E158469E
:103070000EA900F0D9FA37E6431C4B4500DAF7E019
:103080004B461B1A5B019946B5488144002A00D182
:10309000F3E04B46586900F03DFB4B460121584692
:1030A0005B690EAA98479CE7AE4A5B011568ED186C
:1030B000002DC1D184E7A37999466B789945D6D084
:1030C0006B78002B00D033E14B466B70002B00D1A6
:1030D0002BE148460138C0B2FFF7A6FA002800D11C
:1030E0007EE143780793022B00D079E10122C17978
:1030F000B1468B11491113400A40302112015B0186
:1031000013432A78A8468A4313432B7009239A460F
:1031100082445646BA46C37882781B021343C318CA
:1031200005938E4B04938E4B08938E4B09938E4BD5
:103130000A93059BB34200D855E1737801220B2B0B
:1031400003D13378F278F6187378042B00D044E179
:10315000059B00279B1B9BB20693049B0B921D783B
:10316000002303931BE0099A7B011568ED18002DDD
:1031700000D132E1310058462B69069A98478446BF
:10318000082803D9069A824200D313E1049B013731
:103190001D78FFB26B1C03979F4200DD1DE1BD420D
:1031A000E1D8039B5D1B089B6D019C466544E1E7EC
:1031B0006B780CAA02321370584601230EA900F056
:1031C00049FA91E5E3881A0AD8B20F2A00D9F7E63E
:1031D00066499300CB589F460EA800F0A1FA5846C6
:1031E000A179FFF7A7FB02222B7813432B707BE515
:1031F000E388012B00D0E3E608222B78584693435E
:103200000EA92B7000F010FA6EE5022029780CABA5
:103210009A1C8B068908DB0F01400B43138058462C
:1032200002230EA900F016FA5EE5E388012B00D018
:10323000C6E608222B7813432B7018E7237A0F2B4E
:1032400000D9BDE6EB181D79444B1B789D4228D26E
:10325000444B6D011B685D19002D00D1B0E6686913
:1032600000F058FA012158466B690EAA9847B8E653
:10327000002A00D0A4E600239946627902201300B8
:1032800003928343012B15D0002A00D098E62B002F
:103290004344534430331B790CAA9B07DB0F0232A3
:1032A000BCE75A1CAA4200DA8AE6ED1A2C4B6D01E3
:1032B000ED18D4E7E388002B12D1029B1878039B0A
:1032C000012B23D0FFF7F6FB43460221EB185344B2
:1032D00030331A790A4301211A711A790A431A7193
:1032E0004B46002B00D1FFE4586900F013FA4B461F
:1032F00001215B690EAA58469847002000F00AFA9F
:103300003523EB5CDB0700D5EEE4B0E6FFF7ECFB22
:1033100043460221EB18534430331A798A431A7119
:103320001A7903998A431A71DAE7FFF73FFC9EE6A0
:1033300000215846FFF708FB5846FFF7A5FBAB787E
:10334000074903930491054B064998461A7805915D
:10335000002329001D008A461BE0C0462D210020C5
:10336000304D0010A817002068190020D44C001020
:10337000059B6A011B689B18002B4DD0DB685846E3
:10338000984743461A780135EDB2511C2B008D4207
:103390002EDC9542ECD39B1A049A5B01944663445D
:1033A000ECE70CAB9A1C584601230EA9157000F0EF
:1033B00051F999E40B9A012A4FD0002A3CD00023FE
:1033C000B07804E00133DBB20F71934234D2C118FC
:1033D000C9B241440D79FF2DF4D04E4645465746BB
:1033E00000236B70ECE54E465746FFF7DDFB3EE6EB
:1033F0005546542200212800FEF7DCFC1022FF2154
:10340000281DFEF7D7FC28002022FF211430FEF7EC
:10341000D1FC039BAB7057E65546FAE7FEF7B6FEC4
:10342000021E00D1CCE5D37891781B020B4358469D
:103430000EA900F00FF9D4E565463B002A003100E3
:103440000A9800F0B5FEAC46049B039A1B786644CC
:103450000133934200DB6CE6BFE7174B29699942C1
:10346000ADD1079AABE7FFF79BFB021E00D1A7E5A2
:10347000584613780EA900F0EDF8B2E52189FFF760
:10348000D7F8021EF4D19BE5022A0FD0FFF78AFB82
:10349000021EC8D194E5FFF7C3F8021E00D18FE5E4
:1034A000122358460EA900F0D5F89AE5FFF7BCF8AC
:1034B000021EB8D184E5C046413B0010F8B557461E
:1034C0004E46DE4645460C00E0B516001F00002AB9
:1034D0003CD01F4B00259A46702399461D4B9B46B6
:1034E00017E05B462000997800F024FE00281FD0EA
:1034F00021004046FFF744FA002819D0A378DA09E2
:10350000012A1CD00A9A013513702378E418B542B9
:103510001CDA6378052B0BD1E3789B079B0FBB422A
:1035200006D153464A461B789846A3781A42D8D00B
:103530000020F0BCBB46B246A946A046F8BD0B9A97
:10354000013513702378E418B542E2DB0120F0E77F
:10355000A410002054190020702270B5094B0C00F3
:103560001D788B781A4201D0002070BD064B2000D8
:10357000997800F0DFFD0028F6D021002800FFF741
:10358000FFF9F2E7A4100020541900200B007F205F
:1035900010B51840DB0934334000044AC018044B0E
:1035A0001168C01800F082FD10BDC046A8190020A7
:1035B000541900200B007F2010B51840DB0934336C
:1035C0004000044AC018044B1168C01800F096FD72
:1035D00010BDC046A81900205419002070B57F24E2
:1035E0000F480C4064000419CD0964193034207967
:1035F000C00701D5002070BD012625790948354353
:1036000000782571FFF744FA0028F4D101222379CC
:10361000934323712379033293432371EAE7C0462E
:1036200054190020A410002070B5094C060008228F
:1036300020000D00FEF7C4FB00238021E360A3609F
:103640002B783000994300220023FFF7C7FF70BD9D
:10365000F8180020F8B5CE4647469046264E80B56D
:103660008146082230000D001F00FEF7A9FB4346EB
:10367000B3600023F381EC79AB7924021C43231C53
:10368000BC4200D93B1C9FB2B381002C0ED0002F4E
:1036900018D04346002B2CD03B1C402F1BD89FB288
:1036A00033787F2B1CD80021144A0FE080212B781F
:1036B0000022994348460023FFF790FFC0BCB9465B
:1036C000B046F8BD7F230022317899433B0048463D
:1036D000FFF784FFF2E740239FB233787F2BE2D9D4
:1036E000064C3A0041462000FEF76AFB802122008A
:1036F000ECE70020E2E7C046F8180020141900208B
:1037000010B5142200210248FEF754FB10BDC0463C
:10371000F8180020014B18617047C046F8180020C7
:1037200010B5054C010008222000FEF749FB0023DC
:10373000A360E36010BDC046F818002070B5384C97
:103740001D0023780600DA09C9098A4210D000203A
:10375000002D00D070BD21003000FFF703F9236970
:10376000002B03D022000321300098470120F1E70D
:10377000A0687F2B05D8002834D02A002949FEF7FD
:103780001FFBE289A1685219E38892B24919E281CC
:10379000A160934214D03F2D12D9A389981A051C19
:1037A00080B240282AD82078ADB27F2828D80021BE
:1037B0009A4232D01B4A2B003000FFF70FFFC9E7B7
:1037C0002369002B05D022000221300098470028F1
:1037D0000AD0802123780022994330000023FFF78C
:1037E000FDFEB7E70020B5E700213000FFF762F9E2
:1037F00030008021FFF75EF90120ABE74025D2E7DA
:103800009A4207D0074C2A002000FEF7D9FA8021FF
:103810002200D0E780210022CDE70022CBE7C0467E
:10382000F81800201419002070B50400FFF7C4F93F
:10383000002800D170BDFFF7C7F90028FAD1E3785E
:10384000002BF7D025001035280000F01FFD3F2881
:10385000F0D90020E178FFF799FE0028EAD028008F
:1038600000F014FD3F2807D922004023E178C83238
:103870000020FFF7B3FEDDE7E1780020FFF79AFEB6
:10388000D8E7C04610B50400FFF796F9002801D12B
:10389000002010BDFFF798F90028F9D1A3001B19EB
:1038A000DB00044A1B19DB00D218137901301840E1
:1038B000EFE7C046B0170020830010B51B18DB00EF
:1038C0001818034BC000C01800F0C2FC10BDC04661
:1038D000C0170020F8B584002518ED002D18234BE3
:1038E000ED002E004746CE4698468023103680B520
:1038F000464407005B029A4200D31D4A300092B250
:1039000000F028FD8146FFF757F9002804D148460A
:10391000C0BCB946B046F8BDFFF756F90028F6D14D
:10392000E419E400E419E4004444E378002BEED009
:10393000300000F0ABFC3F28E9D90020E178FFF728
:1039400025FE0028E3D0300000F0A0FC3F2808D975
:10395000C8352A004023E17842440020FFF73EFEAC
:10396000D5E7E1780020FFF725FED0E7B01700206B
:10397000FFFF0000F8B50500FFF71EF9002801D190
:103980000020F8BDFFF720F90028F9D1AC00641938
:10399000E4006419E4002500134E2435AD19280015
:1039A00000F056FC0028EBD037190020B978FFF75B
:1039B000EDFD0028E4D00934FF34A41921002800CB
:1039C000402200F0C7FCB978051E08D00300220091
:1039D0000020FFF703FE0028D2D02800D1E7002006
:1039E000FFF7E8FDCCE7C046B017002070B58400B3
:1039F0002418E4000C4B2418E400E418802305008C
:103A00005B029A4200D3094A200092B200F06AFD9C
:103A10000600200000F01CFC3F2801D8300070BDDB
:103A20002800FFF7A7FFF9E7D4170020FFFF0000E9
:103A3000830010B51B18DB001818034BC000C0181A
:103A400000F024FC10BDC046D4170020A422F0B51D
:103A50000025194C83B0002120005200FEF7AAF97E
:103A6000164B21001D70FF236371E1235B02A360ED
:103A7000200008234022A37338310095073B103003
:103A800000F0B0FB27000123210020002600402287
:103A900078310093B837243000F0A4FBC0363800EA
:103AA000FDF730F83000FDF72DF8E5612762266359
:103AB000656303B0F0BDC046B0170020AC1700200E
:103AC0000B4B196B00290AD01A6A002A0DD000226C
:103AD0001A621A63DA6100225A63012070471A6A77
:103AE000002AFAD0D9611962F7E71A63F3E7C046F2
:103AF000B017002070B50F4C052200212000FEF702
:103B000059F90D4D2B78DA0707D50C4C9B070CD5CE
:103B10000121200000F0C2FD70BD2000103000F037
:103B20009DFD2B78054C9B07F2D4200000F096FDFC
:103B3000EEE7C046B0170020AC170020D4170020D5
:103B4000F0B5C64600B54B79060082B0022B02D113
:103B50008B79022B05D00025280002B080BCB84626
:103B6000F0BD214FBB78002BF5D18B7809253B7038
:103B70000C780C196378242B0BD1082A02D821E089
:103B8000AA421FD32378E4185D196378ADB2242BC1
:103B9000F6D0052B1AD0042B14D163790A2B11D13E
:103BA000237821009846114B0222019301330093A0
:103BB000300002234144FFF781FC0028CBD00E35B2
:103BC0004544ADB23800FFF72FFEC5E721003000B5
:103BD000FFF7C2FC0028BED0A3787B7023785D1964
:103BE000E4186378ADB2D6E7B0170020B217002012
:103BF000F8B5602314001278050013400020202B34
:103C000012D12F4A6379277916781B023B439E42D3
:103C10000AD16378222B1AD007D8202B3CD0212B35
:103C200002D1012930D00120F8BD232BFCD101297C
:103C300040D00329F7D1234B002BF4D0E178A378AF
:103C400009020020194300E000BF0120ECE7012930
:103C500030D00329E7D101252E00A378E47802397A
:103C600024021C431471264024321000714000F0DD
:103C700015FD154B002BD6D06208002031002A40DC
:103C800000E000BF0120CFE70723210028000F4AF2
:103C9000FFF7E0FC0120C7E70129F5D00329C2D1D5
:103CA0000B4B002BBFD0083200201100FEF792FA18
:103CB0000120B9E721002800FFF7B6FC0120B3E797
:103CC000B01700200000000000000000B81700201E
:103CD000D5210010F0B54F464646D646374DC0B503
:103CE000EA781F0080460C00AB788A423BD08B42BA
:103CF00010D00020E0BCBA46B146A846F0BD304B1B
:103D0000002B04D02F4800F0B9FA002852D0280028
:103D1000FFF78AFDAB78A34201D00120EAE72A4BE6
:103D2000002B02D0002000E000BF0020FFF722FEA1
:103D30000028F2D1254C200000F08AFA0028ECD1AE
:103D4000002FEAD0BF06E8D1243C4046A178FFF717
:103D50001DFC0028E1D0002300224046A178FFF797
:103D60003DFC0120C6E710232E009A46C836AA441F
:103D700031005046BAB200F0B5FB154B002BBED057
:103D80006B79FF2BBBD0002FB9D0F219914603E01D
:103D90000136B145B3D06B7932789A42F8D15046AA
:103DA00000F06CFA0028F3D15346103B597900E03B
:103DB00000BFEDE700E000BFA9E7C046B017002054
:103DC00000000000C017002000000000D4170020F1
:103DD00000000000F8B50400FEF7EEFE002801D157
:103DE0000020F8BDFEF7F0FE0028F9D1AF239B00BC
:103DF0005C432500144E1835AD19280000F028FA50
:103E00000028EDD0371900207978FFF7BFFB002894
:103E1000E6D09F239B009C466444A41921002800FF
:103E2000402200F097FA7978051E08D0030022009E
:103E30000020FFF7D3FB0028D2D02800D1E70020D4
:103E4000FFF7B8FBCCE7C046B0100020AF22F0B5BA
:103E5000164C83B00021200092008026FDF7AAFFB7
:103E6000002521007600320001232C31201D009511
:103E700000F0B8F9210020002D313200FF3101237C
:103E80000095183000F0AEF98B239B00E71838003E
:103E9000FCF738FE8D239B00E6183000FCF732FE5D
:103EA000256167616662A56203B0F0BDB0100020B5
:103EB0000B4B5A6A002A0BD05A69002A03D0002003
:103EC00000211861596100225A629A6201207047EC
:103ED0005A69002AFAD00020002118615961F5E7DB
:103EE000B010002010B5054C0023200008C000F0E1
:103EF000B5FB2000183000F0B1FB10BDB010002061
:103F0000F0B5CE46474680B54B790D0083B0FF2B08
:103F100007D12E4E0C787378B178002B01D100298F
:103F200005D0002003B0C0BCB946B046F0BDAB78A8
:103F30002C1933702F79002F26D06378052B08D0E9
:103F4000A21804E0217864186178052901D0944210
:103F5000F8D31F4B3A009846019301330093210098
:103F60000223FFF7ABFA0028DBD001235B42434476
:103F70009946434659782F7900290CD17378002B44
:103F800005D1FB00DB1BE418601B80B2CAE70020F0
:103F9000FFF720FFF5E70020FFF7F8FA0028EDD043
:103FA0004346D81C00F072F93F2808D94B46094A0D
:103FB0009978424440230020FFF710FBDEE74B4690
:103FC00000209978FFF7F6FAD8E7C046B010002035
:103FD000B11000203B02000070B52D4C0600A27805
:103FE0001D008A4212D0637800208B420DD1294BEC
:103FF000002B04D029040020090C00E000BF0020A1
:10400000FFF7E8FE002824D0012070BD9AB28F236C
:104010009B00E118201D00F065FA1F4B002B02D019
:10402000002000E000BF0020A178FFF7AFFA0028D1
:10403000EAD0201D00F02AF93F2823D98F239B00C6
:10404000E218FD3B0020A178FF3BFFF7C7FA0120F3
:10405000DBE7124C200000F0FBF80028D4D1002D43
:10406000D2D0AD06D0D1183C30006178FFF78EFA7F
:104070000028C9D0002330001A006178FFF7AEFA9B
:104080000120C2E70020A178FFF794FA0120BCE7E5
:10409000B01000200000000000000000C810002048
:1040A00010B50020FEF798FD10BDC046037870B52E
:1040B000DB0704000E00DD0F002B17D103785B0730
:1040C00001D5280070BD01213000494200F0E4FB19
:1040D0002378DB07DD0F002B0AD123785B0708D498
:1040E0000422237801251343237002E00025E8E72A
:1040F0000025300000F0B8FBE3E7C04670B50C00C7
:10410000012106004942200000F0C6FB33785B071E
:10411000DD0F002B04DB200000F0A6FB280070BDA3
:104120003378DB0704D40422337893433370F2E707
:104130000025F0E7437902791B021343C2785B053F
:1041400092075B0D920F022A1DD0032A0CD000208B
:10415000012A08D102394A425141124A9446614427
:1041600099424041C0B2704702394A1E91410E4AFD
:10417000494211408022D200944600206144994275
:104180004041C0B2EFE7022905D0002040229A4208
:104190004041C0B2E7E7054A981843425841C0B2CF
:1041A000E1E7C046FF03000040FCFFFF00FEFFFF09
:1041B0008A1870B5914207D27F264C78052C04D01E
:1041C0000C7809198A42F8D870BD34008D782C40DB
:1041D00064000419ED0963550C7809198A42ECD87A
:1041E000F2E7C046F0B5C64600B5040006A805785B
:1041F0008020884617001E000002824226D8E06810
:10420000002803D00121494200F046FB2069002824
:1042100003D00121494200F03FFB43462360730471
:104220005B0CED031D430023E0686381A780E580FC
:104230002381002801D000F017FB2069002801D05D
:1042400000F012FB012080BCB846F0BD0020FAE768
:1042500010B5048941898288A3B288B28C4207D301
:104260001B1A9BB2101C9A4200D9181C80B210BDB8
:104270005100091A5B189BB2F4E7C04603894089D4
:10428000181A43425841C0B27047C04610B504895D
:1042900041898288A3B288B28C4207D31B1A9BB291
:1042A00000209A4201D9D21A90B210BD5100091AC9
:1042B0005B189BB2F4E7C04670B5040000690E00BD
:1042C000002803D00121494200F0E6FA25896089DF
:1042D000A288A9B283B285422CD3CD1AADB2002DEB
:1042E0002ED0AA4208D2914230D3891A8BB2638170
:1042F0009A4203D89B1A9BB29A42FBD9E288216862
:104300005204520C53433000C918FDF759FD63891C
:104310000125591C89B2A2888B4213D90021520071
:10432000891A89B220696181002801D000F09CFAC5
:10433000280070BD5500ED1A4D19ADB2002DD0D139
:10434000618989B252009142ECDBE9E789188BB2AE
:104350006381CDE7F0B546464F46D646C0B5060068
:10436000006989469046002803D00121494200F0A7
:1043700093FA31897289B5888BB294B2914254D341
:104380001F1BBFB2002F4AD0BD4205D2AB4251D253
:104390005B199CB22F0074814346B8453DD89FB24B
:1043A000A54203D8641BA4B2A542FBD9F2883168A8
:1043B0005204520C904662432B1B9BB28918424612
:1043C0009F4225D953439BB21A0048469A46FDF7AF
:1043D000F7FC434648467D1B64195C4331685044F2
:1043E000A2B2FDF7EDFC7189B588CB199BB26A00CA
:1043F000994216D99B1A9BB230697381002801D06B
:1044000000F032FA3800E0BCBA46B146A846F0BD2A
:1044100048467A43FDF7D4FCE5E73B1CBFE77389C8
:104420009BB26A009342E7DBE4E76F003F1BDF19B2
:10443000BFB2A7E75B1B9CB2ACE7C046F8B504006F
:10444000C0680E00002803D00121494200F024FA80
:10445000258920896189A288ADB283B28FB2884252
:1044600029D3DB1B9BB29A4209D8E779FF0906D111
:10447000E068002801D000F0F7F93800F8BD954257
:104480001ED32B009B1A9BB29342FBD2E28820687A
:104490005204520C53433100C018FDF791FC6B1CC1
:1044A0009BB2A2889D4218D9002352009B1A9BB24E
:1044B00001272381DCE75100C91B5B189BB2D2E7BF
:1044C0002B00E28820685204520C53433100C0187C
:1044D000FDF776FC0135A288ABB252009342E7DBD0
:1044E000E4E7C046F0B557464546DE464E46E0B5E1
:1044F000140005000F0083B0002A75D0C0680028A2
:1045000003D00121494200F0C7F92E89E9796A896F
:10451000AB88B6B292B2C90945D1964200D36DE0DC
:1045200059008A1AB21892B2002189469A4234D2AE
:104530009A1A111C92B2A24200D9211C8AB2914649
:10454000EA885204520C90464A46B21892B29246F9
:104550004A46D21A92B2934634009E4203D3E41ADA
:10456000A4B29C42FBD24246624328681B1B9BB20A
:10457000801842464B4554D34B4639005A43FDF709
:104580001FFCAB885B00564501D89A4503DB5246B9
:10459000D31A9BB29A4653462B81E868002825D04F
:1045A00000F062F922E0E9884904490C88469C42FF
:1045B00027D2964247D3B11A89B28C465800E11AE5
:1045C00089B28B4661460919814208DBD11889B24C
:1045D0000E1BB6B28A46B2423BD9361AB6B2A219FF
:1045E00092B29246A146B7E700239946484603B0E7
:1045F000F0BCBB46B246A946A046F0BDB21A92B284
:1046000092E700218946002BC7D04146E41A4C436B
:104610001600D118002289B28A46994693463F195E
:104620009AE753439BB21A0039005C440193FDF7AB
:10463000C7FB414622004A43019B286892B2F91801
:10464000FDF7BEFB9DE75800811A711889B28C46B0
:10465000B5E7A146B04200DD7EE7BEE710B5040035
:10466000C068002803D00121494200F015F92069F3
:10467000002803D00121494200F00EF90023E06830
:1046800063812381002801D000F0EEF82069002822
:1046900001D000F0E9F8012010BDC04670B504005B
:1046A000C0680D00002803D00121494200F0F4F851
:1046B0002069002803D00121494200F0EDF87F2154
:1046C000E379ED011940E0682943E171002801D048
:1046D00000F0CAF82069002801D000F0C5F80120D8
:1046E00070BDC04601230121084A1360084A1360C7
:1046F000084A080013689843FBD1074A11608021DB
:10470000490013680B42FCD07047C04600E00040EF
:1047100000F0004008C0004000C0044010B5010097
:1047200000230022002000F043F810BD10B58307DD
:104730000AD00300032102E001330B4205D01A78AE
:10474000002AF9D1181A10BD030019680C4A0D4C43
:104750008A188A4322420FD15968094A04338A18B9
:104760008A43224208D15968054A04338A188A4389
:104770002242F1D000E001331A78002AFBD1E1E7B0
:10478000FFFEFEFE8080808070B5074C074D641BE5
:10479000A41005D0013CA300EB589847002CF9D198
:1047A00000F04EF870BDC04640490010404900106E
:1047B000F0B5C6461A4C00B52568002D2AD06C68A5
:1047C0001F2C2ADC002808D10020631C0234A4001E
:1047D0006B60615180BCB846F0BD8827A600AE1959
:1047E000F2510137FF37BC460122AC446746A24074
:1047F0003F68904617436246176084277F00F35155
:104800000228E1D1280042468D30FF30036813436F
:104810000360D9E7034D2560D1E701204042D9E785
:10482000A417002014160020034B10B5002B02D053
:104830000248FFF773FF10BD000000008947001019
:10484000F8B5C0460000000001B40248844601BC2F
:10485000604700BF190C002001B40248844601BC27
:10486000604700BF0903002001B40248844601BC30
:10487000604700BF2D02002001B40248844601BCFD
:10488000604700BF610F002001B40248844601BCAC
:10489000604700BFC100002001B40248844601BC4B
:1048A000604700BF9D01002001B40248844601BC5E
:1048B000604700BF0101002001B40248844601BCEA
:1048C000604700BFD10C002001B40248844601BCFF
:1048D000604700BFD903002001B40248844601BCF0
:1048E000604700BF410C002001B40248844601BC6F
:1048F000604700BF810C0020C5190010F11900109D
:10490000D51B0010A51D00103D1C0010491D0010F6
:10491000FD1A00100D1A00102D1A0010411A001077
:10492000B50A0010491A00107D0E00108D190010F4
:10493000E906001029480010A9260010FD02001009
:104940000A2A2A2A2050414E4943202A2A2A0A00AC
:104950000A0000004E6F207370696E6C6F636B739A
:104960002061726520617661696C61626C6500002E
:104970004E6F2075736572204952517320617265C4
:1049800020617661696C61626C65000048617264E7
:104990007761726520616C61726D20256420616CA5
:1049A000726561647920636C61696D656400000003
:1049B0004861726420617373657274006D6973730A
:1049C000696E6720646F75626C652066756E6374CE
:1049D000696F6E0052656C6561736500626F6F741C
:1049E000325F77323571303830000000322E322E8F
:1049F000300000007069636F5F77000070726F6A4B
:104A00006563742D74656D706C61746500000000E1
:104A100053657020323620323032350055534220F3
:104A2000737464696E202F207374646F7574000052
:104A300052617370626572727920506900000000E3
:104A40005069636F00000000426F6172642043444C
:104A5000430000005265736574000000556E686184
:104A60006E646C65642049525120307825780A00C4
:104A7000657020253032582077617320616C726533
:104A800061647920617661696C61626C6500000027
:104A900043616E277420636F6E74696E756520784C
:104AA000666572206F6E20696E6163746976652039
:104AB000657020253032580006005250D3F0754200
:104AC000D449001006005250E182887FDC49001072
:104AD00006005250ABB36053EC4900100600525030
:104AE000BBFF3CB6F449001006005250861C03027E
:104AF000FC490010060052505422A29D104A00109A
:104B000005005250DE65F468805D00100D0A00005B
:104B100000000000F520001000000000F920001047
:104B200005210010312100102D210010000000008F
:104B30000A00000000000306A600080002000200B0
:104B40009C001400030057494E55534200000000DA
:104B50000000000000008000040001002800440064
:104B60006500760069006300650049006E0074000E
:104B70006500720066006100630065004700550033
:104B80004900440000004E007B00620063003700D3
:104B9000330039003800630031002D003700330046
:104BA000630064002D0034006300620037002D00B4
:104BB00039003800620038002D0039003100330020
:104BC0006100380066006300610037006200660023
:104BD00036007D0000000000050F2100011C1005BB
:104BE00000DF60DDD88945C74C9CD2659D9E648AF4
:104BF0009F00000306A600010000000006005250BE
:104C000053B4F4A11C4A001000000000304A001008
:104C1000404A00101C210020484A0010544A00104D
:104C200009025400030100807D080B00020202000B
:104C3000000904000001020200040524002001050F
:104C40002401000104240206052406000107058151
:104C50000308001009040100020A00000007050211
:104C60000240000007058202400000090402000023
:104C7000FF00010512011002EF0201408A2E0A0016
:104C80000001010203010000E82C0010502E00106A
:104C9000A02E0010282E00103A2E0010182E001002
:104CA000882D0010342D0010282D00100A3200101D
:104CB000F0310010C02F00102A320010C02F001059
:104CC000D8310010C4310010C02F0010B0310010D6
:104CD000B6300010C02F0010963400108834001039
:104CE0007C340010C02F0010C02F0010663400105C
:104CF00088340010C02F0010C02F0010C02F0010EB
:104D0000C02F0010C02F0010C02F0010C02F0010A7
:104D10001C340010A20D0020A20D0020EC0D00207C
:104D20000C0E0020500E0020620E0020980D002076
:104D3000000000004D3A0010C13A0010F53A001092
:104D4000413B0010F13B0010D53C0010000000007A
:104D5000000000004D3E0010B13E0010E53E001086
:104D6000013F001095210010D93F00100000000005
:104D7000B84A0010C44A0010D04A0010DC4A0010A3
:104D8000E84A0010F44A0010004B0010FC4B0010E1
:104D900003000068EFF3108C72B60268002AFCD0A2
:104DA000BFF35F8F04229A56002A04DB002900D04B
:104DB0000A60002004E0D0220120120612681A7155
:104DC0001B68BFF35F8F00221A608CF31088704756
:104DD000F0B5C646150000B504001E000268EFF3EA
:104DE000108172B61368002BFCD0BFF35F8F0423D1
:104DF000E356002B2DDB2268BFF35F8F002010608D
:104E000081F31088D0221206127852B290469A424C
:104E100003D1002080BCB846F0BD00270BE023681A
:104E2000BFF35F8F1F6081F310882800310000F00E
:104E30002BFF0028EDD12268EFF3108172B61368C2
:104E4000002BFCD0BFF35F8F23797F2BE7D943463C
:104E500002E0D0231B061B6823712368BFF35F8F1A
:104E600000221A6081F310880120D3E7F0B5C6460E
:104E700000B50D00040000F0FFFEFA2206000F004E
:104E8000002328000021920000F0EEFE8023361857
:104E90004F411B069F4202D30126174F7642D02373
:104EA0001B061B68002598460BE02368BFF35F8F45
:104EB0001D6081F310883000390000F0E5FE002805
:104EC00018D12268EFF3108172B61368002BFCD062
:104ED000BFF35F8F23797F2BE7D943462371236884
:104EE000BFF35F8F00221A6081F31088012080BC1D
:104EF000B846F0BD0020FAE7FFFFFF7F0268EFF33E
:104F0000108172B61368002BFCD0BFF35F8FFF23B4
:104F100003710368BFF35F8F00221A6081F310886A
:104F200040BF704710B5084C2378002B0AD180236E
:104F3000064807495B051A68C25004338B42FAD110
:104F40000123237010BDC04630210020701A0010CC
:104F50000001001010B5014B984710BD711A0020D8
:104F6000064B5A6802609A684260DA6882601A6981
:104F7000C2605A6902619B69436170470000024048
:104F80000268064B5A6042689A608268DA60C268BA
:104F90001A6102695A6142699A61704700000240D1
:104FA000034B1A68C0239B009343024A1360704767
:104FB0000C8001400C900140054B1A6880239B0037
:104FC0005340C02292001340024A13607047C0460B
:104FD0000C8001400C9001401423F0B5D6464F469A
:104FE00046469A46C0B581461888043386B098462E
:104FF0000E001B882949140098475346070018885B
:10500000434627491B88984753460500188843465E
:1050100024491B8898478046FFF784FF6846FFF7BE
:105020009FFFB847A847FFF7C7FF221E20D0C02127
:1050300008270220490511E0002C14D0131B0D2B6A
:1050400024D9002D0AD02300002A05D00B6E013A86
:105050003370130001362343002B09D03D008B6AC7
:105060001D401842E8D1002DEDD123001343F5D1A6
:10507000FFF796FFC047FFF76DFF6846FFF780FF19
:1050800006B0E0BCBA46B146A846F0BD4B461B7818
:10509000013C0B6601239C46E144E4E749460000DD
:1050A00045580000464300000022154B10B59A6099
:1050B000DA601A615A619A61DA611A625A629A6216
:1050C000DA621A635A639A63DA631A645A649A64F6
:1050D000DA641A655A659A65DA651A665A669A66D6
:1050E000DA661A675A679A67DA67F0329200002127
:1050F000044800F0D9FD044B044A1A6010BDC046B4
:10510000000010501C1C0020E41F002080011050E3
:10511000F0B557464E464546DE46E0B5254B0025E0
:105120009F6D012687B0002F23D0234B9946012382
:105130009B46224B984601E0202D1AD032002C00CD
:105140000135B2463A40EDB27600002AF4D04B4623
:1051500052469A655B46640864002B40E41864017B
:105160004444200000F052FC002809D153469F43DC
:10517000E2D107B0F0BCBB46B246A946A046F0BD9E
:10518000E28AA37802A80192002106220630009349
:1051900000F08AFDE02302A9DB008B80009B019ACE
:1051A0000B7203A80121059200F050FC200000F0D2
:1051B000C9FBDBE70000115000301150DC1B002060
:1051C0009823F0B5C646CD4A00B5D55880232E00A9
:1051D0009B02102484B01E401D427AD0C84BC94C9B
:1051E0009A6AC94B00261A603B23E35C022B00D16C
:1051F0000EE17B23E35C022B00D126E1BB23E35CC1
:10520000022B00D115E1FB23E35C022B00D14FE11F
:105210003C23FF33E35C022B00D13CE17C23FF33D2
:10522000E35C022B00D129E1BC23FF33E35C022BBA
:1052300000D116E1FC23FF33E35C022B00D1BEE179
:10524000B24BE35C022B00D1AEE1B14BE35C022B2D
:1052500000D19DE1AF4BE35C022B00D18CE1AE4B62
:10526000E35C022B00D17BE1AC4BE35C022B00D171
:105270006AE1AB4BE35C022B00D125E1A94BE35C77
:10528000022B00D1A7E1A84BE35C022B00D1BEE1C9
:10529000002E08D1A54B1B78002B04D18021A44AF5
:1052A00090338902D150954B0A229C6C6B460021A9
:1052B000981D00F0F9FCC02301AE9B00640533800B
:1052C0003000640D01218026029400F0BFFB994C50
:1052D000B602EB0600D58FE080235B021D4232D080
:1052E0001E43012302249846864FBB7E002B14D018
:1052F00000F0AAFC012800D982E0C0220021380079
:10530000920100F025FB380000F01CFB00F09CFC33
:10531000012802D9864B5C661C664346FB70203729
:10532000012C01D00124E0E7C023834ADB00019374
:1053300002AB03CA03C3012101A800F087FB80224E
:105340007B4B92021A6580235B011D420ED18023A4
:10535000DB011D4226D180231B021D4238D1AE4203
:1053600000D0D1E104B080BCB846F0BD00221E439D
:10537000624B01AC1A60FFF797FE6B460A220021D0
:10538000981D00F091FC80235B0023800121200008
:1053900000F05CFB8022664B12031A658023DB0160
:1053A0001D42D8D01E436B460A220021981D00F0F2
:1053B0007BFC802301ACDB0023800121200000F076
:1053C00045FB10225A4B1A6580231B021D42C6D092
:1053D0001E436B460A220021981D00F065FCA023A5
:1053E00001ACDB0023800121200000F02FFB802294
:1053F0004F4B12011A65B2E7FFF78AFE26006BE7F2
:105400004E4B3E4A1C66536E2340A342FBD174E7C9
:105410003833E65C002E00D1EBE60233E25C002A72
:1054200000D1E6E6200000222030E25400F0B8FA75
:10543000DFE6B833E75C002F00D1E4E60233E25C3C
:10544000002A00D020E13E00DDE67833E75C002F43
:1054500000D1D3E60233E25C002A00D00CE13E002A
:10546000CCE6B933FF33E75C002F00D1E2E602332C
:10547000E25C002A00D0F6E03E00DBE67933FF3341
:10548000E75C002F00D1CFE60233E25C002A00D0B7
:10549000E0E03E00C8E63933FF33E75C002F00D17F
:1054A000BCE60233E25C002A00D0CAE03E00B5E66A
:1054B000F833E75C002F00D1AAE60233E25C002A51
:1054C00000D0B6E03E00A3E61D4BE75C002F00D104
:1054D000D4E60233E25C002A00D00EE1114BE35C1B
:1054E000022B00D189E0104BE35C022B00D0DAE6FE
:1054F000144BE35C002B00D08EE0D4E6000011508A
:1055000000400540DC1B0020D41B00203B020000B3
:105510007B020000BB020000FB0200003B03000016
:105520007B030000BB030000FB0300002E210020D2
:1055300000301150100002000000105000201150E7
:105540007A030000FA030000724BE75C002F00D1E1
:105550008FE60233E25C002A00D0C6E03E0088E617
:105560006D4BE75C002F00D17EE60233E25C002A3F
:1055700000D0B2E03E0077E6684BE75C002F00D138
:105580006DE60233E25C002A00D09EE03E0066E653
:10559000634BE75C002F00D15CE60233E25C002A3B
:1055A00000D08AE03E0055E65E4BE75C002F00D15C
:1055B0004BE60233E25C002A77D13E0045E6F93340
:1055C000FF33E75C002F00D13AE60233E25C002AA9
:1055D00062D13E0034E6544BE35C002B00D152E62E
:1055E000EF239B00E25C002A00D17CE70022E2541A
:1055F0001C3BE01800F0D4F975E74B4BE35C002B43
:10560000EED14A4BE35C022B00D04CE63E00484B07
:10561000E35C002B00D13BE6FF239B00E25C002A09
:1056200000D140E60022E2541C3BE01800F0B8F93B
:1056300039E620000022E030E2543E0000F0B0F9EC
:10564000E6E5200000222130FF30E2543E0000F069
:10565000A7F9E3E5200000226130FF30E2543E006C
:1056600000F09EF9E0E520000022A130FF30E25476
:105670003E0000F095F9DDE5200000226030E254A4
:105680003E0000F08DF9B9E520000022A030E25480
:105690003E0000F085F9B6E520000022E130FF3041
:1056A000E2543E0000F07CF9CAE50022E2541C3BC3
:1056B000E01800F075F93E00C7E50022E2541C3BFB
:1056C000E01800F06DF93E00C4E50022E2541C3BF6
:1056D000E01800F065F93E00C1E50022E2541C3BF1
:1056E000E01800F05DF93E00BEE50022E2541C3BEC
:1056F000E01800F055F93E00BBE50022E2541C3BE7
:10570000E01800F04DF9E9E631000A48694000F080
:10571000A3FAC0463A030000FA020000BA020000F1
:105720007A0200003A020000BA030000FB03000006
:10573000FA0300005C4A0010F0B5D6464F464646D4
:10574000C0B50200838A008B8A46041C984200D9A7
:105750001C1CD57880262800471EB841A4B2F6004C
:10576000264340033043012675401B1BD5705578F6
:105770009BB29382002D37D15146D6688D01611EB0
:10578000761988461569002C29D006293AD93300A4
:105790002B439B0736D16B1CF31A022B32D9231FE4
:1057A0009B0801339C4600270023E9580137F1503C
:1057B0000433BC45F9D8634641469B00ED18F61802
:1057C000CF1A9C4209D02B783370002F05D06B780C
:1057D0007370012F01D0AB78B3701569938A2D19BE
:1057E0001561802212021043002B02D18023DB01BD
:1057F00018435346002B00D00004E0BCBA46B14623
:10580000A846F0BD0023EF5CF75401339C42FAD167
:105810001569938AE3E7C0468368F0B51B68050005
:10582000002900D01B0C9B05980D6B78002B08D12C
:10583000EB8AC318EB822B8B834201D90023AB8206
:10584000F0BDEB688901461EB4462A695C18002841
:1058500027D0062E2BD901315B18D31A022B26D95B
:10586000130023439B0722D100230021061FB60803
:105870000136E7580131D75004338E42F9D86346D8
:10588000B600A41992199F1BB04209D02378137057
:10589000002F05D063785370012F01D0A378937047
:1058A0002A69EB8A1218C318EB822A61C3E7002326
:1058B000E15CD15401339842FAD12A69F1E7C0463C
:1058C00010B50400836800211B68FFF7A5FF63681B
:1058D0001B685B0002D5238B834200D010BD0121E1
:1058E0002000FFF799FFF9E7084A0300126C002037
:1058F000920703D49A78D209012A00D07047D87E43
:10590000023843425841C0B2F8E7C0460000115087
:1059100010B5FFF7E9FF00280CD00749074B8C466C
:10592000074A9B6A126863449B1A0020C6229A4267
:105930004041C0B210BDC046E0FCFFFF0040054042
:10594000D41B002000238376436103617047C04667
:1059500010B58368002901D01C682140002A12D0AC
:105960008024E400114322420DD01A6822420CD157
:10597000084A0A401A60084A126C920703D40C23A2
:10598000033BFDD28368196010BD8178034800F0A5
:1059900063F9C046FFFBFFFF00001150704A001082
:1059A000436870B5002180251E680400FFF7C4FE1F
:1059B000134B6D011B6C05439B070FD5A3785B064A
:1059C0000FD0104B1E4080239B053343626800219B
:1059D000136020002A00FFF7BBFF70BDA378DB092E
:1059E000EFD0A38A002BECD001212000FFF7A4FE0A
:1059F000A023054ADB05324005431343E6E7C046D2
:105A000000001150FFFFFFAFFFFFFFDF70B5857E85
:105A10000400002D14D0FFF753FFA38A002B01D1FF
:105A2000280070BD2000FFF773FF002803D001237A
:105A300000252377F4E72000FFF7B2FF0025EFE70A
:105A40008178014800F008F9904A0010F0B5CE4680
:105A5000474680B5437805000E0085B0062B08D870
:105A60006C4A9B00D3589F466B4A13780133DBB2D4
:105A700013706A4B1C686269EFF3108172B6136889
:105A8000002BFCD0BFF35F8FA1612000290000F044
:105A9000D3F86269A369BFF35F8F0021116083F3BC
:105AA0001088002804D105B0C0BCB946B046F0BD8E
:105AB00032006978287800F0EFF8F4E70121584BBC
:105AC0001A788A431A701A7801318A431A700022B0
:105AD0005A701A7802318A431A70CAE75149524FF4
